{
  "_format": "hh-sol-artifact-1",
  "contractName": "SimpleMathlerSharedUriNft",
  "sourceName": "contracts/SimpleMathlerSharedUriNft.sol",
  "abi": [
    {
      "inputs": [
        {
          "internalType": "address",
          "name": "initialOwner",
          "type": "address"
        },
        {
          "internalType": "string",
          "name": "baseURI",
          "type": "string"
        }
      ],
      "stateMutability": "nonpayable",
      "type": "constructor"
    },
    {
      "inputs": [
        {
          "internalType": "address",
          "name": "sender",
          "type": "address"
        },
        {
          "internalType": "uint256",
          "name": "tokenId",
          "type": "uint256"
        },
        {
          "internalType": "address",
          "name": "owner",
          "type": "address"
        }
      ],
      "name": "ERC721IncorrectOwner",
      "type": "error"
    },
    {
      "inputs": [
        {
          "internalType": "address",
          "name": "operator",
          "type": "address"
        },
        {
          "internalType": "uint256",
          "name": "tokenId",
          "type": "uint256"
        }
      ],
      "name": "ERC721InsufficientApproval",
      "type": "error"
    },
    {
      "inputs": [
        {
          "internalType": "address",
          "name": "approver",
          "type": "address"
        }
      ],
      "name": "ERC721InvalidApprover",
      "type": "error"
    },
    {
      "inputs": [
        {
          "internalType": "address",
          "name": "operator",
          "type": "address"
        }
      ],
      "name": "ERC721InvalidOperator",
      "type": "error"
    },
    {
      "inputs": [
        {
          "internalType": "address",
          "name": "owner",
          "type": "address"
        }
      ],
      "name": "ERC721InvalidOwner",
      "type": "error"
    },
    {
      "inputs": [
        {
          "internalType": "address",
          "name": "receiver",
          "type": "address"
        }
      ],
      "name": "ERC721InvalidReceiver",
      "type": "error"
    },
    {
      "inputs": [
        {
          "internalType": "address",
          "name": "sender",
          "type": "address"
        }
      ],
      "name": "ERC721InvalidSender",
      "type": "error"
    },
    {
      "inputs": [
        {
          "internalType": "uint256",
          "name": "tokenId",
          "type": "uint256"
        }
      ],
      "name": "ERC721NonexistentToken",
      "type": "error"
    },
    {
      "inputs": [
        {
          "internalType": "address",
          "name": "owner",
          "type": "address"
        }
      ],
      "name": "OwnableInvalidOwner",
      "type": "error"
    },
    {
      "inputs": [
        {
          "internalType": "address",
          "name": "account",
          "type": "address"
        }
      ],
      "name": "OwnableUnauthorizedAccount",
      "type": "error"
    },
    {
      "anonymous": false,
      "inputs": [
        {
          "indexed": true,
          "internalType": "address",
          "name": "recipient",
          "type": "address"
        },
        {
          "indexed": true,
          "internalType": "uint256",
          "name": "tokenId",
          "type": "uint256"
        }
      ],
      "name": "AchievementNftMinted",
      "type": "event"
    },
    {
      "anonymous": false,
      "inputs": [
        {
          "indexed": true,
          "internalType": "address",
          "name": "owner",
          "type": "address"
        },
        {
          "indexed": true,
          "internalType": "address",
          "name": "approved",
          "type": "address"
        },
        {
          "indexed": true,
          "internalType": "uint256",
          "name": "tokenId",
          "type": "uint256"
        }
      ],
      "name": "Approval",
      "type": "event"
    },
    {
      "anonymous": false,
      "inputs": [
        {
          "indexed": true,
          "internalType": "address",
          "name": "owner",
          "type": "address"
        },
        {
          "indexed": true,
          "internalType": "address",
          "name": "operator",
          "type": "address"
        },
        {
          "indexed": false,
          "internalType": "bool",
          "name": "approved",
          "type": "bool"
        }
      ],
      "name": "ApprovalForAll",
      "type": "event"
    },
    {
      "anonymous": false,
      "inputs": [
        {
          "indexed": true,
          "internalType": "address",
          "name": "previousOwner",
          "type": "address"
        },
        {
          "indexed": true,
          "internalType": "address",
          "name": "newOwner",
          "type": "address"
        }
      ],
      "name": "OwnershipTransferred",
      "type": "event"
    },
    {
      "anonymous": false,
      "inputs": [
        {
          "indexed": true,
          "internalType": "address",
          "name": "from",
          "type": "address"
        },
        {
          "indexed": true,
          "internalType": "address",
          "name": "to",
          "type": "address"
        },
        {
          "indexed": true,
          "internalType": "uint256",
          "name": "tokenId",
          "type": "uint256"
        }
      ],
      "name": "Transfer",
      "type": "event"
    },
    {
      "inputs": [
        {
          "internalType": "address",
          "name": "to",
          "type": "address"
        },
        {
          "internalType": "uint256",
          "name": "tokenId",
          "type": "uint256"
        }
      ],
      "name": "approve",
      "outputs": [],
      "stateMutability": "nonpayable",
      "type": "function"
    },
    {
      "inputs": [
        {
          "internalType": "address",
          "name": "owner",
          "type": "address"
        }
      ],
      "name": "balanceOf",
      "outputs": [
        {
          "internalType": "uint256",
          "name": "",
          "type": "uint256"
        }
      ],
      "stateMutability": "view",
      "type": "function"
    },
    {
      "inputs": [
        {
          "internalType": "uint256",
          "name": "tokenId",
          "type": "uint256"
        }
      ],
      "name": "getApproved",
      "outputs": [
        {
          "internalType": "address",
          "name": "",
          "type": "address"
        }
      ],
      "stateMutability": "view",
      "type": "function"
    },
    {
      "inputs": [],
      "name": "getNextTokenId",
      "outputs": [
        {
          "internalType": "uint256",
          "name": "",
          "type": "uint256"
        }
      ],
      "stateMutability": "view",
      "type": "function"
    },
    {
      "inputs": [
        {
          "internalType": "address",
          "name": "owner",
          "type": "address"
        },
        {
          "internalType": "address",
          "name": "operator",
          "type": "address"
        }
      ],
      "name": "isApprovedForAll",
      "outputs": [
        {
          "internalType": "bool",
          "name": "",
          "type": "bool"
        }
      ],
      "stateMutability": "view",
      "type": "function"
    },
    {
      "inputs": [
        {
          "internalType": "address",
          "name": "recipient",
          "type": "address"
        }
      ],
      "name": "mintAchievement",
      "outputs": [
        {
          "internalType": "uint256",
          "name": "",
          "type": "uint256"
        }
      ],
      "stateMutability": "nonpayable",
      "type": "function"
    },
    {
      "inputs": [],
      "name": "name",
      "outputs": [
        {
          "internalType": "string",
          "name": "",
          "type": "string"
        }
      ],
      "stateMutability": "view",
      "type": "function"
    },
    {
      "inputs": [],
      "name": "owner",
      "outputs": [
        {
          "internalType": "address",
          "name": "",
          "type": "address"
        }
      ],
      "stateMutability": "view",
      "type": "function"
    },
    {
      "inputs": [
        {
          "internalType": "uint256",
          "name": "tokenId",
          "type": "uint256"
        }
      ],
      "name": "ownerOf",
      "outputs": [
        {
          "internalType": "address",
          "name": "",
          "type": "address"
        }
      ],
      "stateMutability": "view",
      "type": "function"
    },
    {
      "inputs": [],
      "name": "renounceOwnership",
      "outputs": [],
      "stateMutability": "nonpayable",
      "type": "function"
    },
    {
      "inputs": [
        {
          "internalType": "address",
          "name": "from",
          "type": "address"
        },
        {
          "internalType": "address",
          "name": "to",
          "type": "address"
        },
        {
          "internalType": "uint256",
          "name": "tokenId",
          "type": "uint256"
        }
      ],
      "name": "safeTransferFrom",
      "outputs": [],
      "stateMutability": "nonpayable",
      "type": "function"
    },
    {
      "inputs": [
        {
          "internalType": "address",
          "name": "from",
          "type": "address"
        },
        {
          "internalType": "address",
          "name": "to",
          "type": "address"
        },
        {
          "internalType": "uint256",
          "name": "tokenId",
          "type": "uint256"
        },
        {
          "internalType": "bytes",
          "name": "data",
          "type": "bytes"
        }
      ],
      "name": "safeTransferFrom",
      "outputs": [],
      "stateMutability": "nonpayable",
      "type": "function"
    },
    {
      "inputs": [
        {
          "internalType": "address",
          "name": "operator",
          "type": "address"
        },
        {
          "internalType": "bool",
          "name": "approved",
          "type": "bool"
        }
      ],
      "name": "setApprovalForAll",
      "outputs": [],
      "stateMutability": "nonpayable",
      "type": "function"
    },
    {
      "inputs": [
        {
          "internalType": "string",
          "name": "newBaseURI",
          "type": "string"
        }
      ],
      "name": "setBaseTokenURI",
      "outputs": [],
      "stateMutability": "nonpayable",
      "type": "function"
    },
    {
      "inputs": [
        {
          "internalType": "bytes4",
          "name": "interfaceId",
          "type": "bytes4"
        }
      ],
      "name": "supportsInterface",
      "outputs": [
        {
          "internalType": "bool",
          "name": "",
          "type": "bool"
        }
      ],
      "stateMutability": "view",
      "type": "function"
    },
    {
      "inputs": [],
      "name": "symbol",
      "outputs": [
        {
          "internalType": "string",
          "name": "",
          "type": "string"
        }
      ],
      "stateMutability": "view",
      "type": "function"
    },
    {
      "inputs": [
        {
          "internalType": "uint256",
          "name": "tokenId",
          "type": "uint256"
        }
      ],
      "name": "tokenURI",
      "outputs": [
        {
          "internalType": "string",
          "name": "",
          "type": "string"
        }
      ],
      "stateMutability": "view",
      "type": "function"
    },
    {
      "inputs": [
        {
          "internalType": "address",
          "name": "from",
          "type": "address"
        },
        {
          "internalType": "address",
          "name": "to",
          "type": "address"
        },
        {
          "internalType": "uint256",
          "name": "tokenId",
          "type": "uint256"
        }
      ],
      "name": "transferFrom",
      "outputs": [],
      "stateMutability": "nonpayable",
      "type": "function"
    },
    {
      "inputs": [
        {
          "internalType": "address",
          "name": "newOwner",
          "type": "address"
        }
      ],
      "name": "transferOwnership",
      "outputs": [],
      "stateMutability": "nonpayable",
      "type": "function"
    },
    {
      "inputs": [],
      "name": "withdraw",
      "outputs": [],
      "stateMutability": "nonpayable",
      "type": "function"
    }
  ],
  "bytecode": "0x60806040523480156200001157600080fd5b5060405162002dac38038062002dac833981810160405281019062000037919062000431565b816040518060400160405280601381526020017f4d6174686c657220416368696576656d656e74000000000000000000000000008152506040518060400160405280600481526020017f4d544841000000000000000000000000000000000000000000000000000000008152508160009081620000b59190620006e2565b508060019081620000c79190620006e2565b505050600073ffffffffffffffffffffffffffffffffffffffff168173ffffffffffffffffffffffffffffffffffffffff16036200013f5760006040517f1e4fbdf7000000000000000000000000000000000000000000000000000000008152600401620001369190620007da565b60405180910390fd5b62000150816200017360201b60201c565b508060089081620001629190620006e2565b5060016007819055505050620007f7565b6000600660009054906101000a900473ffffffffffffffffffffffffffffffffffffffff16905081600660006101000a81548173ffffffffffffffffffffffffffffffffffffffff021916908373ffffffffffffffffffffffffffffffffffffffff1602179055508173ffffffffffffffffffffffffffffffffffffffff168173ffffffffffffffffffffffffffffffffffffffff167f8be0079c531659141344cd1fd0a4f28419497f9722a3daafe3b4186f6b6457e060405160405180910390a35050565b6000604051905090565b600080fd5b600080fd5b600073ffffffffffffffffffffffffffffffffffffffff82169050919050565b60006200027a826200024d565b9050919050565b6200028c816200026d565b81146200029857600080fd5b50565b600081519050620002ac8162000281565b92915050565b600080fd5b600080fd5b6000601f19601f8301169050919050565b7f4e487b7100000000000000000000000000000000000000000000000000000000600052604160045260246000fd5b6200030782620002bc565b810181811067ffffffffffffffff82111715620003295762000328620002cd565b5b80604052505050565b60006200033e62000239565b90506200034c8282620002fc565b919050565b600067ffffffffffffffff8211156200036f576200036e620002cd565b5b6200037a82620002bc565b9050602081019050919050565b60005b83811015620003a75780820151818401526020810190506200038a565b60008484015250505050565b6000620003ca620003c48462000351565b62000332565b905082815260208101848484011115620003e957620003e8620002b7565b5b620003f684828562000387565b509392505050565b600082601f830112620004165762000415620002b2565b5b815162000428848260208601620003b3565b91505092915050565b600080604083850312156200044b576200044a62000243565b5b60006200045b858286016200029b565b925050602083015167ffffffffffffffff8111156200047f576200047e62000248565b5b6200048d85828601620003fe565b9150509250929050565b600081519050919050565b7f4e487b7100000000000000000000000000000000000000000000000000000000600052602260045260246000fd5b60006002820490506001821680620004ea57607f821691505b6020821081036200050057620004ff620004a2565b5b50919050565b60008190508160005260206000209050919050565b60006020601f8301049050919050565b600082821b905092915050565b6000600883026200056a7fffffffffffffffffffffffffffffffffffffffffffffffffffffffffffffffff826200052b565b6200057686836200052b565b95508019841693508086168417925050509392505050565b6000819050919050565b6000819050919050565b6000620005c3620005bd620005b7846200058e565b62000598565b6200058e565b9050919050565b6000819050919050565b620005df83620005a2565b620005f7620005ee82620005ca565b84845462000538565b825550505050565b600090565b6200060e620005ff565b6200061b818484620005d4565b505050565b5b8181101562000643576200063760008262000604565b60018101905062000621565b5050565b601f82111562000692576200065c8162000506565b62000667846200051b565b8101602085101562000677578190505b6200068f62000686856200051b565b83018262000620565b50505b505050565b600082821c905092915050565b6000620006b76000198460080262000697565b1980831691505092915050565b6000620006d28383620006a4565b9150826002028217905092915050565b620006ed8262000497565b67ffffffffffffffff811115620007095762000708620002cd565b5b620007158254620004d1565b6200072282828562000647565b600060209050601f8311600181146200075a576000841562000745578287015190505b620007518582620006c4565b865550620007c1565b601f1984166200076a8662000506565b60005b8281101562000794578489015182556001820191506020850194506020810190506200076d565b86831015620007b45784890151620007b0601f891682620006a4565b8355505b6001600288020188555050505b505050505050565b620007d4816200026d565b82525050565b6000602082019050620007f16000830184620007c9565b92915050565b6125a580620008076000396000f3fe608060405234801561001057600080fd5b506004361061012c5760003560e01c806370a08231116100ad578063b88d4fde11610071578063b88d4fde1461031b578063c87b56dd14610337578063caa0f92a14610367578063e985e9c514610385578063f2fde38b146103b55761012c565b806370a0823114610289578063715018a6146102b95780638da5cb5b146102c357806395d89b41146102e1578063a22cb465146102ff5761012c565b80632b68c16e116100f45780632b68c16e146101e757806330176e13146102175780633ccfd60b1461023357806342842e0e1461023d5780636352211e146102595761012c565b806301ffc9a71461013157806306fdde0314610161578063081812fc1461017f578063095ea7b3146101af57806323b872dd146101cb575b600080fd5b61014b6004803603810190610146919061197b565b6103d1565b60405161015891906119c3565b60405180910390f35b6101696104b3565b6040516101769190611a6e565b60405180910390f35b61019960048036038101906101949190611ac6565b610545565b6040516101a69190611b34565b60405180910390f35b6101c960048036038101906101c49190611b7b565b610561565b005b6101e560048036038101906101e09190611bbb565b610577565b005b61020160048036038101906101fc9190611c0e565b610679565b60405161020e9190611c4a565b60405180910390f35b610231600480360381019061022c9190611d9a565b6107de565b005b61023b6107f9565b005b61025760048036038101906102529190611bbb565b610851565b005b610273600480360381019061026e9190611ac6565b610871565b6040516102809190611b34565b60405180910390f35b6102a3600480360381019061029e9190611c0e565b610883565b6040516102b09190611c4a565b60405180910390f35b6102c161093d565b005b6102cb610951565b6040516102d89190611b34565b60405180910390f35b6102e961097b565b6040516102f69190611a6e565b60405180910390f35b61031960048036038101906103149190611e0f565b610a0d565b005b61033560048036038101906103309190611ef0565b610a23565b005b610351600480360381019061034c9190611ac6565b610a48565b60405161035e9190611a6e565b60405180910390f35b61036f610b59565b60405161037c9190611c4a565b60405180910390f35b61039f600480360381019061039a9190611f73565b610b63565b6040516103ac91906119c3565b60405180910390f35b6103cf60048036038101906103ca9190611c0e565b610bf7565b005b60007f80ac58cd000000000000000000000000000000000000000000000000000000007bffffffffffffffffffffffffffffffffffffffffffffffffffffffff1916827bffffffffffffffffffffffffffffffffffffffffffffffffffffffff1916148061049c57507f5b5e139f000000000000000000000000000000000000000000000000000000007bffffffffffffffffffffffffffffffffffffffffffffffffffffffff1916827bffffffffffffffffffffffffffffffffffffffffffffffffffffffff1916145b806104ac57506104ab82610c7d565b5b9050919050565b6060600080546104c290611fe2565b80601f01602080910402602001604051908101604052809291908181526020018280546104ee90611fe2565b801561053b5780601f106105105761010080835404028352916020019161053b565b820191906000526020600020905b81548152906001019060200180831161051e57829003601f168201915b5050505050905090565b600061055082610ce7565b5061055a82610d6f565b9050919050565b610573828261056e610dac565b610db4565b5050565b600073ffffffffffffffffffffffffffffffffffffffff168273ffffffffffffffffffffffffffffffffffffffff16036105e95760006040517f64a0ae920000000000000000000000000000000000000000000000000000000081526004016105e09190611b34565b60405180910390fd5b60006105fd83836105f8610dac565b610dc6565b90508373ffffffffffffffffffffffffffffffffffffffff168173ffffffffffffffffffffffffffffffffffffffff1614610673578382826040517f64283d7b00000000000000000000000000000000000000000000000000000000815260040161066a93929190612013565b60405180910390fd5b50505050565b6000610683610fe0565b600960008373ffffffffffffffffffffffffffffffffffffffff1673ffffffffffffffffffffffffffffffffffffffff16815260200190815260200160002060009054906101000a900460ff1615610710576040517f08c379a0000000000000000000000000000000000000000000000000000000008152600401610707906120bc565b60405180910390fd5b600060075490506007600081548092919061072a9061210b565b91905055506107398382611067565b6001600960008573ffffffffffffffffffffffffffffffffffffffff1673ffffffffffffffffffffffffffffffffffffffff16815260200190815260200160002060006101000a81548160ff021916908315150217905550808373ffffffffffffffffffffffffffffffffffffffff167f668ad381adc21f9ecce095499a2dd0d79b5a404123549f9c7374e5612dfeab2360405160405180910390a380915050919050565b6107e6610fe0565b80600890816107f591906122ff565b5050565b610801610fe0565b610809610951565b73ffffffffffffffffffffffffffffffffffffffff166108fc479081150290604051600060405180830381858888f1935050505015801561084e573d6000803e3d6000fd5b50565b61086c83838360405180602001604052806000815250610a23565b505050565b600061087c82610ce7565b9050919050565b60008073ffffffffffffffffffffffffffffffffffffffff168273ffffffffffffffffffffffffffffffffffffffff16036108f65760006040517f89c62b640000000000000000000000000000000000000000000000000000000081526004016108ed9190611b34565b60405180910390fd5b600360008373ffffffffffffffffffffffffffffffffffffffff1673ffffffffffffffffffffffffffffffffffffffff168152602001908152602001600020549050919050565b610945610fe0565b61094f6000611085565b565b6000600660009054906101000a900473ffffffffffffffffffffffffffffffffffffffff16905090565b60606001805461098a90611fe2565b80601f01602080910402602001604051908101604052809291908181526020018280546109b690611fe2565b8015610a035780601f106109d857610100808354040283529160200191610a03565b820191906000526020600020905b8154815290600101906020018083116109e657829003601f168201915b5050505050905090565b610a1f610a18610dac565b838361114b565b5050565b610a2e848484610577565b610a42610a39610dac565b858585856112ba565b50505050565b60606000610a5583610871565b9050600073ffffffffffffffffffffffffffffffffffffffff168173ffffffffffffffffffffffffffffffffffffffff1603610ac6576040517f08c379a0000000000000000000000000000000000000000000000000000000008152600401610abd90612443565b60405180910390fd5b60088054610ad390611fe2565b80601f0160208091040260200160405190810160405280929190818152602001828054610aff90611fe2565b8015610b4c5780601f10610b2157610100808354040283529160200191610b4c565b820191906000526020600020905b815481529060010190602001808311610b2f57829003601f168201915b5050505050915050919050565b6000600754905090565b6000600560008473ffffffffffffffffffffffffffffffffffffffff1673ffffffffffffffffffffffffffffffffffffffff16815260200190815260200160002060008373ffffffffffffffffffffffffffffffffffffffff1673ffffffffffffffffffffffffffffffffffffffff16815260200190815260200160002060009054906101000a900460ff16905092915050565b610bff610fe0565b600073ffffffffffffffffffffffffffffffffffffffff168173ffffffffffffffffffffffffffffffffffffffff1603610c715760006040517f1e4fbdf7000000000000000000000000000000000000000000000000000000008152600401610c689190611b34565b60405180910390fd5b610c7a81611085565b50565b60007f01ffc9a7000000000000000000000000000000000000000000000000000000007bffffffffffffffffffffffffffffffffffffffffffffffffffffffff1916827bffffffffffffffffffffffffffffffffffffffffffffffffffffffff1916149050919050565b600080610cf38361146b565b9050600073ffffffffffffffffffffffffffffffffffffffff168173ffffffffffffffffffffffffffffffffffffffff1603610d6657826040517f7e273289000000000000000000000000000000000000000000000000000000008152600401610d5d9190611c4a565b60405180910390fd5b80915050919050565b60006004600083815260200190815260200160002060009054906101000a900473ffffffffffffffffffffffffffffffffffffffff169050919050565b600033905090565b610dc183838360016114a8565b505050565b600080610dd28461146b565b9050600073ffffffffffffffffffffffffffffffffffffffff168373ffffffffffffffffffffffffffffffffffffffff1614610e1457610e1381848661166d565b5b600073ffffffffffffffffffffffffffffffffffffffff168173ffffffffffffffffffffffffffffffffffffffff1614610ea557610e566000856000806114a8565b6001600360008373ffffffffffffffffffffffffffffffffffffffff1673ffffffffffffffffffffffffffffffffffffffff168152602001908152602001600020600082825403925050819055505b600073ffffffffffffffffffffffffffffffffffffffff168573ffffffffffffffffffffffffffffffffffffffff1614610f28576001600360008773ffffffffffffffffffffffffffffffffffffffff1673ffffffffffffffffffffffffffffffffffffffff168152602001908152602001600020600082825401925050819055505b846002600086815260200190815260200160002060006101000a81548173ffffffffffffffffffffffffffffffffffffffff021916908373ffffffffffffffffffffffffffffffffffffffff160217905550838573ffffffffffffffffffffffffffffffffffffffff168273ffffffffffffffffffffffffffffffffffffffff167fddf252ad1be2c89b69c2b068fc378daa952ba7f163c4a11628f55a4df523b3ef60405160405180910390a4809150509392505050565b610fe8610dac565b73ffffffffffffffffffffffffffffffffffffffff16611006610951565b73ffffffffffffffffffffffffffffffffffffffff161461106557611029610dac565b6040517f118cdaa700000000000000000000000000000000000000000000000000000000815260040161105c9190611b34565b60405180910390fd5b565b611081828260405180602001604052806000815250611731565b5050565b6000600660009054906101000a900473ffffffffffffffffffffffffffffffffffffffff16905081600660006101000a81548173ffffffffffffffffffffffffffffffffffffffff021916908373ffffffffffffffffffffffffffffffffffffffff1602179055508173ffffffffffffffffffffffffffffffffffffffff168173ffffffffffffffffffffffffffffffffffffffff167f8be0079c531659141344cd1fd0a4f28419497f9722a3daafe3b4186f6b6457e060405160405180910390a35050565b600073ffffffffffffffffffffffffffffffffffffffff168273ffffffffffffffffffffffffffffffffffffffff16036111bc57816040517f5b08ba180000000000000000000000000000000000000000000000000000000081526004016111b39190611b34565b60405180910390fd5b80600560008573ffffffffffffffffffffffffffffffffffffffff1673ffffffffffffffffffffffffffffffffffffffff16815260200190815260200160002060008473ffffffffffffffffffffffffffffffffffffffff1673ffffffffffffffffffffffffffffffffffffffff16815260200190815260200160002060006101000a81548160ff0219169083151502179055508173ffffffffffffffffffffffffffffffffffffffff168373ffffffffffffffffffffffffffffffffffffffff167f17307eab39ab6107e8899845ad3d59bd9653f200f220920489ca2b5937696c31836040516112ad91906119c3565b60405180910390a3505050565b60008373ffffffffffffffffffffffffffffffffffffffff163b1115611464578273ffffffffffffffffffffffffffffffffffffffff1663150b7a02868685856040518563ffffffff1660e01b815260040161131994939291906124b8565b6020604051808303816000875af192505050801561135557506040513d601f19601f820116820180604052508101906113529190612519565b60015b6113d9573d8060008114611385576040519150601f19603f3d011682016040523d82523d6000602084013e61138a565b606091505b5060008151036113d157836040517f64a0ae920000000000000000000000000000000000000000000000000000000081526004016113c89190611b34565b60405180910390fd5b805181602001fd5b63150b7a0260e01b7bffffffffffffffffffffffffffffffffffffffffffffffffffffffff1916817bffffffffffffffffffffffffffffffffffffffffffffffffffffffff19161461146257836040517f64a0ae920000000000000000000000000000000000000000000000000000000081526004016114599190611b34565b60405180910390fd5b505b5050505050565b60006002600083815260200190815260200160002060009054906101000a900473ffffffffffffffffffffffffffffffffffffffff169050919050565b80806114e15750600073ffffffffffffffffffffffffffffffffffffffff168273ffffffffffffffffffffffffffffffffffffffff1614155b156116155760006114f184610ce7565b9050600073ffffffffffffffffffffffffffffffffffffffff168373ffffffffffffffffffffffffffffffffffffffff161415801561155c57508273ffffffffffffffffffffffffffffffffffffffff168173ffffffffffffffffffffffffffffffffffffffff1614155b801561156f575061156d8184610b63565b155b156115b157826040517fa9fbf51f0000000000000000000000000000000000000000000000000000000081526004016115a89190611b34565b60405180910390fd5b811561161357838573ffffffffffffffffffffffffffffffffffffffff168273ffffffffffffffffffffffffffffffffffffffff167f8c5be1e5ebec7d5bd14f71427d1e84f3dd0314c0f7b2291e5b200ac8c7c3b92560405160405180910390a45b505b836004600085815260200190815260200160002060006101000a81548173ffffffffffffffffffffffffffffffffffffffff021916908373ffffffffffffffffffffffffffffffffffffffff16021790555050505050565b611678838383611755565b61172c57600073ffffffffffffffffffffffffffffffffffffffff168373ffffffffffffffffffffffffffffffffffffffff16036116ed57806040517f7e2732890000000000000000000000000000000000000000000000000000000081526004016116e49190611c4a565b60405180910390fd5b81816040517f177e802f000000000000000000000000000000000000000000000000000000008152600401611723929190612546565b60405180910390fd5b505050565b61173b8383611816565b611750611746610dac565b60008585856112ba565b505050565b60008073ffffffffffffffffffffffffffffffffffffffff168373ffffffffffffffffffffffffffffffffffffffff161415801561180d57508273ffffffffffffffffffffffffffffffffffffffff168473ffffffffffffffffffffffffffffffffffffffff1614806117ce57506117cd8484610b63565b5b8061180c57508273ffffffffffffffffffffffffffffffffffffffff166117f483610d6f565b73ffffffffffffffffffffffffffffffffffffffff16145b5b90509392505050565b600073ffffffffffffffffffffffffffffffffffffffff168273ffffffffffffffffffffffffffffffffffffffff16036118885760006040517f64a0ae9200000000000000000000000000000000000000000000000000000000815260040161187f9190611b34565b60405180910390fd5b600061189683836000610dc6565b9050600073ffffffffffffffffffffffffffffffffffffffff168173ffffffffffffffffffffffffffffffffffffffff161461190a5760006040517f73c6ac6e0000000000000000000000000000000000000000000000000000000081526004016119019190611b34565b60405180910390fd5b505050565b6000604051905090565b600080fd5b600080fd5b60007fffffffff0000000000000000000000000000000000000000000000000000000082169050919050565b61195881611923565b811461196357600080fd5b50565b6000813590506119758161194f565b92915050565b60006020828403121561199157611990611919565b5b600061199f84828501611966565b91505092915050565b60008115159050919050565b6119bd816119a8565b82525050565b60006020820190506119d860008301846119b4565b92915050565b600081519050919050565b600082825260208201905092915050565b60005b83811015611a185780820151818401526020810190506119fd565b60008484015250505050565b6000601f19601f8301169050919050565b6000611a40826119de565b611a4a81856119e9565b9350611a5a8185602086016119fa565b611a6381611a24565b840191505092915050565b60006020820190508181036000830152611a888184611a35565b905092915050565b6000819050919050565b611aa381611a90565b8114611aae57600080fd5b50565b600081359050611ac081611a9a565b92915050565b600060208284031215611adc57611adb611919565b5b6000611aea84828501611ab1565b91505092915050565b600073ffffffffffffffffffffffffffffffffffffffff82169050919050565b6000611b1e82611af3565b9050919050565b611b2e81611b13565b82525050565b6000602082019050611b496000830184611b25565b92915050565b611b5881611b13565b8114611b6357600080fd5b50565b600081359050611b7581611b4f565b92915050565b60008060408385031215611b9257611b91611919565b5b6000611ba085828601611b66565b9250506020611bb185828601611ab1565b9150509250929050565b600080600060608486031215611bd457611bd3611919565b5b6000611be286828701611b66565b9350506020611bf386828701611b66565b9250506040611c0486828701611ab1565b9150509250925092565b600060208284031215611c2457611c23611919565b5b6000611c3284828501611b66565b91505092915050565b611c4481611a90565b82525050565b6000602082019050611c5f6000830184611c3b565b92915050565b600080fd5b600080fd5b7f4e487b7100000000000000000000000000000000000000000000000000000000600052604160045260246000fd5b611ca782611a24565b810181811067ffffffffffffffff82111715611cc657611cc5611c6f565b5b80604052505050565b6000611cd961190f565b9050611ce58282611c9e565b919050565b600067ffffffffffffffff821115611d0557611d04611c6f565b5b611d0e82611a24565b9050602081019050919050565b82818337600083830152505050565b6000611d3d611d3884611cea565b611ccf565b905082815260208101848484011115611d5957611d58611c6a565b5b611d64848285611d1b565b509392505050565b600082601f830112611d8157611d80611c65565b5b8135611d91848260208601611d2a565b91505092915050565b600060208284031215611db057611daf611919565b5b600082013567ffffffffffffffff811115611dce57611dcd61191e565b5b611dda84828501611d6c565b91505092915050565b611dec816119a8565b8114611df757600080fd5b50565b600081359050611e0981611de3565b92915050565b60008060408385031215611e2657611e25611919565b5b6000611e3485828601611b66565b9250506020611e4585828601611dfa565b9150509250929050565b600067ffffffffffffffff821115611e6a57611e69611c6f565b5b611e7382611a24565b9050602081019050919050565b6000611e93611e8e84611e4f565b611ccf565b905082815260208101848484011115611eaf57611eae611c6a565b5b611eba848285611d1b565b509392505050565b600082601f830112611ed757611ed6611c65565b5b8135611ee7848260208601611e80565b91505092915050565b60008060008060808587031215611f0a57611f09611919565b5b6000611f1887828801611b66565b9450506020611f2987828801611b66565b9350506040611f3a87828801611ab1565b925050606085013567ffffffffffffffff811115611f5b57611f5a61191e565b5b611f6787828801611ec2565b91505092959194509250565b60008060408385031215611f8a57611f89611919565b5b6000611f9885828601611b66565b9250506020611fa985828601611b66565b9150509250929050565b7f4e487b7100000000000000000000000000000000000000000000000000000000600052602260045260246000fd5b60006002820490506001821680611ffa57607f821691505b60208210810361200d5761200c611fb3565b5b50919050565b60006060820190506120286000830186611b25565b6120356020830185611c3b565b6120426040830184611b25565b949350505050565b7f4d5448413a20416368696576656d656e7420616c72656164792061776172646560008201527f642e000000000000000000000000000000000000000000000000000000000000602082015250565b60006120a66022836119e9565b91506120b18261204a565b604082019050919050565b600060208201905081810360008301526120d581612099565b9050919050565b7f4e487b7100000000000000000000000000000000000000000000000000000000600052601160045260246000fd5b600061211682611a90565b91507fffffffffffffffffffffffffffffffffffffffffffffffffffffffffffffffff8203612148576121476120dc565b5b600182019050919050565b60008190508160005260206000209050919050565b60006020601f8301049050919050565b600082821b905092915050565b6000600883026121b57fffffffffffffffffffffffffffffffffffffffffffffffffffffffffffffffff82612178565b6121bf8683612178565b95508019841693508086168417925050509392505050565b6000819050919050565b60006121fc6121f76121f284611a90565b6121d7565b611a90565b9050919050565b6000819050919050565b612216836121e1565b61222a61222282612203565b848454612185565b825550505050565b600090565b61223f612232565b61224a81848461220d565b505050565b5b8181101561226e57612263600082612237565b600181019050612250565b5050565b601f8211156122b35761228481612153565b61228d84612168565b8101602085101561229c578190505b6122b06122a885612168565b83018261224f565b50505b505050565b600082821c905092915050565b60006122d6600019846008026122b8565b1980831691505092915050565b60006122ef83836122c5565b9150826002028217905092915050565b612308826119de565b67ffffffffffffffff81111561232157612320611c6f565b5b61232b8254611fe2565b612336828285612272565b600060209050601f8311600181146123695760008415612357578287015190505b61236185826122e3565b8655506123c9565b601f19841661237786612153565b60005b8281101561239f5784890151825560018201915060208501945060208101905061237a565b868310156123bc57848901516123b8601f8916826122c5565b8355505b6001600288020188555050505b505050505050565b7f4552433732313a2055524920717565727920666f72206e6f6e6578697374656e60008201527f7420746f6b656e206f7220746f6b656e2077697468206e6f206f776e65720000602082015250565b600061242d603e836119e9565b9150612438826123d1565b604082019050919050565b6000602082019050818103600083015261245c81612420565b9050919050565b600081519050919050565b600082825260208201905092915050565b600061248a82612463565b612494818561246e565b93506124a48185602086016119fa565b6124ad81611a24565b840191505092915050565b60006080820190506124cd6000830187611b25565b6124da6020830186611b25565b6124e76040830185611c3b565b81810360608301526124f9818461247f565b905095945050505050565b6000815190506125138161194f565b92915050565b60006020828403121561252f5761252e611919565b5b600061253d84828501612504565b91505092915050565b600060408201905061255b6000830185611b25565b6125686020830184611c3b565b939250505056fea2646970667358221220e58b2445b925c0f008adb8acfd12b63b79e2c0fc96de124a9820d1be0ab7e3f364736f6c63430008140033",
  "linkReferences": {},
  "deployedLinkReferences": {}
}